{
  "contractName": "MyTokenSale",
  "abi": [
    {
      "inputs": [
        {
          "internalType": "uint256",
          "name": "_rate",
          "type": "uint256"
        },
        {
          "internalType": "address payable",
          "name": "_wallet",
          "type": "address"
        },
        {
          "internalType": "contract IERC20",
          "name": "_token",
          "type": "address"
        },
        {
          "internalType": "contract KYCHandler",
          "name": "_kyc",
          "type": "address"
        }
      ],
      "stateMutability": "nonpayable",
      "type": "constructor"
    },
    {
      "anonymous": false,
      "inputs": [
        {
          "indexed": true,
          "internalType": "address",
          "name": "purchaser",
          "type": "address"
        },
        {
          "indexed": true,
          "internalType": "address",
          "name": "beneficiary",
          "type": "address"
        },
        {
          "indexed": false,
          "internalType": "uint256",
          "name": "value",
          "type": "uint256"
        },
        {
          "indexed": false,
          "internalType": "uint256",
          "name": "amount",
          "type": "uint256"
        }
      ],
      "name": "TokensPurchased",
      "type": "event"
    },
    {
      "inputs": [
        {
          "internalType": "address",
          "name": "_beneficiary",
          "type": "address"
        }
      ],
      "name": "buyTokens",
      "outputs": [],
      "stateMutability": "payable",
      "type": "function",
      "payable": true
    },
    {
      "inputs": [],
      "name": "rate",
      "outputs": [
        {
          "internalType": "uint256",
          "name": "",
          "type": "uint256"
        }
      ],
      "stateMutability": "view",
      "type": "function",
      "constant": true
    },
    {
      "inputs": [],
      "name": "token",
      "outputs": [
        {
          "internalType": "contract IERC20",
          "name": "",
          "type": "address"
        }
      ],
      "stateMutability": "view",
      "type": "function",
      "constant": true
    },
    {
      "inputs": [],
      "name": "wallet",
      "outputs": [
        {
          "internalType": "address payable",
          "name": "",
          "type": "address"
        }
      ],
      "stateMutability": "view",
      "type": "function",
      "constant": true
    },
    {
      "inputs": [],
      "name": "weiRaised",
      "outputs": [
        {
          "internalType": "uint256",
          "name": "",
          "type": "uint256"
        }
      ],
      "stateMutability": "view",
      "type": "function",
      "constant": true
    },
    {
      "stateMutability": "payable",
      "type": "receive",
      "payable": true
    }
  ],
  "bytecode": "0x60806040523480156200001157600080fd5b50604051620010a0380380620010a08339818101604052810190620000379190620002a7565b8383838282826001600081905550600083116200008b576040517f08c379a00000000000000000000000000000000000000000000000000000000081526004016200008290620003b0565b60405180910390fd5b600073ffffffffffffffffffffffffffffffffffffffff168273ffffffffffffffffffffffffffffffffffffffff161415620000fe576040517f08c379a0000000000000000000000000000000000000000000000000000000008152600401620000f590620003d2565b60405180910390fd5b600073ffffffffffffffffffffffffffffffffffffffff168173ffffffffffffffffffffffffffffffffffffffff16141562000171576040517f08c379a000000000000000000000000000000000000000000000000000000000815260040162000168906200038e565b60405180910390fd5b8260038190555081600260006101000a81548173ffffffffffffffffffffffffffffffffffffffff021916908373ffffffffffffffffffffffffffffffffffffffff16021790555080600160006101000a81548173ffffffffffffffffffffffffffffffffffffffff021916908373ffffffffffffffffffffffffffffffffffffffff16021790555050505050505080600560006101000a81548173ffffffffffffffffffffffffffffffffffffffff021916908373ffffffffffffffffffffffffffffffffffffffff16021790555050505050620005b3565b6000815190506200025c816200054b565b92915050565b600081519050620002738162000565565b92915050565b6000815190506200028a816200057f565b92915050565b600081519050620002a18162000599565b92915050565b60008060008060808587031215620002c457620002c36200047f565b5b6000620002d48782880162000290565b9450506020620002e7878288016200024b565b9350506040620002fa8782880162000262565b92505060606200030d8782880162000279565b91505092959194509250565b600062000328602483620003f4565b9150620003358262000484565b604082019050919050565b60006200034f601483620003f4565b91506200035c82620004d3565b602082019050919050565b600062000376602583620003f4565b91506200038382620004fc565b604082019050919050565b60006020820190508181036000830152620003a98162000319565b9050919050565b60006020820190508181036000830152620003cb8162000340565b9050919050565b60006020820190508181036000830152620003ed8162000367565b9050919050565b600082825260208201905092915050565b6000620004128262000455565b9050919050565b6000620004268262000455565b9050919050565b60006200043a8262000405565b9050919050565b60006200044e8262000405565b9050919050565b600073ffffffffffffffffffffffffffffffffffffffff82169050919050565b6000819050919050565b600080fd5b7f43726f776473616c653a20746f6b656e20697320746865207a65726f2061646460008201527f7265737300000000000000000000000000000000000000000000000000000000602082015250565b7f43726f776473616c653a20726174652069732030000000000000000000000000600082015250565b7f43726f776473616c653a2077616c6c657420697320746865207a65726f20616460008201527f6472657373000000000000000000000000000000000000000000000000000000602082015250565b620005568162000419565b81146200056257600080fd5b50565b62000570816200042d565b81146200057c57600080fd5b50565b6200058a8162000441565b81146200059657600080fd5b50565b620005a48162000475565b8114620005b057600080fd5b50565b610add80620005c36000396000f3fe60806040526004361061004e5760003560e01c80632c4e722e1461006a5780634042b66f14610095578063521eb273146100c0578063ec8ac4d8146100eb578063fc0c546a1461010757610065565b366100655761006361005e610132565b61013a565b005b600080fd5b34801561007657600080fd5b5061007f610259565b60405161008c91906107d2565b60405180910390f35b3480156100a157600080fd5b506100aa61025f565b6040516100b791906107d2565b60405180910390f35b3480156100cc57600080fd5b506100d5610265565b6040516100e291906106f3565b60405180910390f35b610105600480360381019061010091906105b6565b61013a565b005b34801561011357600080fd5b5061011c61028b565b6040516101299190610737565b60405180910390f35b600033905090565b60026000541415610180576040517f08c379a000000000000000000000000000000000000000000000000000000000815260040161017790610792565b60405180910390fd5b6002600081905550600034905061019782826102b1565b60006101a2826103a9565b9050816004546101b29190610827565b6004819055506101c283826103c0565b8273ffffffffffffffffffffffffffffffffffffffff166101e1610132565b73ffffffffffffffffffffffffffffffffffffffff167f6faf93231a456e552dbc9961f58d9713ee4f2e69d15f1975b050ef0911053a7b84846040516102289291906107ed565b60405180910390a361023a83836103ce565b6102426103d2565b61024c838361043d565b5050600160008190555050565b60035481565b60045481565b600260009054906101000a900473ffffffffffffffffffffffffffffffffffffffff1681565b600160009054906101000a900473ffffffffffffffffffffffffffffffffffffffff1681565b6102bb8282610441565b600560009054906101000a900473ffffffffffffffffffffffffffffffffffffffff1673ffffffffffffffffffffffffffffffffffffffff16638a037562336040518263ffffffff1660e01b815260040161031691906106d8565b60206040518083038186803b15801561032e57600080fd5b505afa158015610342573d6000803e3d6000fd5b505050506040513d601f19601f8201168201806040525081019061036691906105e3565b6103a5576040517f08c379a000000000000000000000000000000000000000000000000000000000815260040161039c90610752565b60405180910390fd5b5050565b6000600354826103b9919061087d565b9050919050565b6103ca82826104f9565b5050565b5050565b600260009054906101000a900473ffffffffffffffffffffffffffffffffffffffff1673ffffffffffffffffffffffffffffffffffffffff166108fc349081150290604051600060405180830381858888f1935050505015801561043a573d6000803e3d6000fd5b50565b5050565b600073ffffffffffffffffffffffffffffffffffffffff168273ffffffffffffffffffffffffffffffffffffffff1614156104b1576040517f08c379a00000000000000000000000000000000000000000000000000000000081526004016104a890610772565b60405180910390fd5b60008114156104f5576040517f08c379a00000000000000000000000000000000000000000000000000000000081526004016104ec906107b2565b60405180910390fd5b5050565b600160009054906101000a900473ffffffffffffffffffffffffffffffffffffffff1673ffffffffffffffffffffffffffffffffffffffff166340c10f1983836040518363ffffffff1660e01b815260040161055692919061070e565b600060405180830381600087803b15801561057057600080fd5b505af1158015610584573d6000803e3d6000fd5b505050505050565b60008135905061059b81610a79565b92915050565b6000815190506105b081610a90565b92915050565b6000602082840312156105cc576105cb610984565b5b60006105da8482850161058c565b91505092915050565b6000602082840312156105f9576105f8610984565b5b6000610607848285016105a1565b91505092915050565b610619816108e9565b82525050565b610628816108d7565b82525050565b61063781610931565b82525050565b600061064a602283610816565b915061065582610989565b604082019050919050565b600061066d602a83610816565b9150610678826109d8565b604082019050919050565b6000610690601f83610816565b915061069b82610a27565b602082019050919050565b60006106b3601983610816565b91506106be82610a50565b602082019050919050565b6106d281610927565b82525050565b60006020820190506106ed600083018461061f565b92915050565b60006020820190506107086000830184610610565b92915050565b6000604082019050610723600083018561061f565b61073060208301846106c9565b9392505050565b600060208201905061074c600083018461062e565b92915050565b6000602082019050818103600083015261076b8161063d565b9050919050565b6000602082019050818103600083015261078b81610660565b9050919050565b600060208201905081810360008301526107ab81610683565b9050919050565b600060208201905081810360008301526107cb816106a6565b9050919050565b60006020820190506107e760008301846106c9565b92915050565b600060408201905061080260008301856106c9565b61080f60208301846106c9565b9392505050565b600082825260208201905092915050565b600061083282610927565b915061083d83610927565b9250827fffffffffffffffffffffffffffffffffffffffffffffffffffffffffffffffff0382111561087257610871610955565b5b828201905092915050565b600061088882610927565b915061089383610927565b9250817fffffffffffffffffffffffffffffffffffffffffffffffffffffffffffffffff04831182151516156108cc576108cb610955565b5b828202905092915050565b60006108e282610907565b9050919050565b60006108f482610907565b9050919050565b60008115159050919050565b600073ffffffffffffffffffffffffffffffffffffffff82169050919050565b6000819050919050565b600061093c82610943565b9050919050565b600061094e82610907565b9050919050565b7f4e487b7100000000000000000000000000000000000000000000000000000000600052601160045260246000fd5b600080fd5b7f4d79546f6b656e53616c653a204b5943206973206e6f7420636f6d706c65746560008201527f642e000000000000000000000000000000000000000000000000000000000000602082015250565b7f43726f776473616c653a2062656e656669636961727920697320746865207a6560008201527f726f206164647265737300000000000000000000000000000000000000000000602082015250565b7f5265656e7472616e637947756172643a207265656e7472616e742063616c6c00600082015250565b7f43726f776473616c653a20776569416d6f756e74206973203000000000000000600082015250565b610a82816108d7565b8114610a8d57600080fd5b50565b610a99816108fb565b8114610aa457600080fd5b5056fea2646970667358221220aa825e3af96f1214b9afbadb51aa2b2bbee9b6e2946b7206c3338972ec9b2f1564736f6c63430008060033",
  "immutableReferences": {},
  "source": "// SPDX-License-Identifier: MIT\npragma solidity ^0.8.0;\n\nimport \"./MintedCrowdsale.sol\";\nimport \"./KYCHandler.sol\";\n\ncontract MyTokenSale is MintedCrowdsale {\n    KYCHandler kyc;\n\n    constructor (\n        uint256 _rate,\n        address payable _wallet,\n        IERC20 _token,\n        KYCHandler _kyc\n    ) MintedCrowdsale(_rate, _wallet, _token) {\n        kyc = _kyc;\n    }\n\n    function _preValidatePurchase(address _beneficiary, uint256 _weiAmount) internal view override {\n        super._preValidatePurchase(_beneficiary, _weiAmount);\n        require(kyc.isKycCompleted(msg.sender), \"MyTokenSale: KYC is not completed.\");\n    }\n}\n",
  "sourcePath": "/home/dornat/Programming/udemy/blockchain/asset-tokenization/contracts/MyTokenSale.sol",
  "compiler": {
    "name": "solc",
    "version": "0.8.6+commit.11564f7e.Emscripten.clang"
  },
  "schemaVersion": "3.4.1",
  "updatedAt": "2021-07-07T09:39:58.587Z",
  "networkType": "ethereum",
  "devdoc": {
    "kind": "dev",
    "methods": {
      "buyTokens(address)": {
        "details": "low level token purchase ***DO NOT OVERRIDE*** This function has a non-reentrancy guard, so it shouldn't be called by another `nonReentrant` function.",
        "params": {
          "_beneficiary": "Recipient of the token purchase"
        }
      }
    },
    "version": 1
  },
  "userdoc": {
    "events": {
      "TokensPurchased(address,address,uint256,uint256)": {
        "notice": "Event for token purchase logging"
      }
    },
    "kind": "user",
    "methods": {},
    "version": 1
  }
}